{
  "_format": "hh-sol-artifact-1",
  "contractName": "PlaylistNFT",
  "sourceName": "contracts/PlaylistNFT.sol",
  "abi": [
    {
      "inputs": [],
      "stateMutability": "nonpayable",
      "type": "constructor"
    },
    {
      "anonymous": false,
      "inputs": [
        {
          "indexed": true,
          "internalType": "address",
          "name": "owner",
          "type": "address"
        },
        {
          "indexed": true,
          "internalType": "address",
          "name": "approved",
          "type": "address"
        },
        {
          "indexed": true,
          "internalType": "uint256",
          "name": "tokenId",
          "type": "uint256"
        }
      ],
      "name": "Approval",
      "type": "event"
    },
    {
      "anonymous": false,
      "inputs": [
        {
          "indexed": true,
          "internalType": "address",
          "name": "owner",
          "type": "address"
        },
        {
          "indexed": true,
          "internalType": "address",
          "name": "operator",
          "type": "address"
        },
        {
          "indexed": false,
          "internalType": "bool",
          "name": "approved",
          "type": "bool"
        }
      ],
      "name": "ApprovalForAll",
      "type": "event"
    },
    {
      "anonymous": false,
      "inputs": [
        {
          "indexed": false,
          "internalType": "uint256",
          "name": "_fromTokenId",
          "type": "uint256"
        },
        {
          "indexed": false,
          "internalType": "uint256",
          "name": "_toTokenId",
          "type": "uint256"
        }
      ],
      "name": "BatchMetadataUpdate",
      "type": "event"
    },
    {
      "anonymous": false,
      "inputs": [
        {
          "indexed": false,
          "internalType": "uint256",
          "name": "_tokenId",
          "type": "uint256"
        }
      ],
      "name": "MetadataUpdate",
      "type": "event"
    },
    {
      "anonymous": false,
      "inputs": [
        {
          "indexed": true,
          "internalType": "address",
          "name": "previousOwner",
          "type": "address"
        },
        {
          "indexed": true,
          "internalType": "address",
          "name": "newOwner",
          "type": "address"
        }
      ],
      "name": "OwnershipTransferred",
      "type": "event"
    },
    {
      "anonymous": false,
      "inputs": [
        {
          "indexed": true,
          "internalType": "address",
          "name": "to",
          "type": "address"
        },
        {
          "indexed": true,
          "internalType": "uint256",
          "name": "tokenId",
          "type": "uint256"
        }
      ],
      "name": "PlaylistMinted",
      "type": "event"
    },
    {
      "anonymous": false,
      "inputs": [
        {
          "indexed": true,
          "internalType": "address",
          "name": "from",
          "type": "address"
        },
        {
          "indexed": true,
          "internalType": "address",
          "name": "to",
          "type": "address"
        },
        {
          "indexed": true,
          "internalType": "uint256",
          "name": "tokenId",
          "type": "uint256"
        }
      ],
      "name": "Transfer",
      "type": "event"
    },
    {
      "inputs": [],
      "name": "MAX_SONGS",
      "outputs": [
        {
          "internalType": "uint8",
          "name": "",
          "type": "uint8"
        }
      ],
      "stateMutability": "view",
      "type": "function"
    },
    {
      "inputs": [],
      "name": "MINT_PRICE",
      "outputs": [
        {
          "internalType": "uint256",
          "name": "",
          "type": "uint256"
        }
      ],
      "stateMutability": "view",
      "type": "function"
    },
    {
      "inputs": [
        {
          "internalType": "address",
          "name": "to",
          "type": "address"
        },
        {
          "internalType": "uint256",
          "name": "tokenId",
          "type": "uint256"
        }
      ],
      "name": "approve",
      "outputs": [],
      "stateMutability": "nonpayable",
      "type": "function"
    },
    {
      "inputs": [
        {
          "internalType": "address",
          "name": "owner",
          "type": "address"
        }
      ],
      "name": "balanceOf",
      "outputs": [
        {
          "internalType": "uint256",
          "name": "",
          "type": "uint256"
        }
      ],
      "stateMutability": "view",
      "type": "function"
    },
    {
      "inputs": [
        {
          "internalType": "uint256",
          "name": "tokenId",
          "type": "uint256"
        }
      ],
      "name": "getApproved",
      "outputs": [
        {
          "internalType": "address",
          "name": "",
          "type": "address"
        }
      ],
      "stateMutability": "view",
      "type": "function"
    },
    {
      "inputs": [],
      "name": "getBalance",
      "outputs": [
        {
          "internalType": "uint256",
          "name": "",
          "type": "uint256"
        }
      ],
      "stateMutability": "view",
      "type": "function"
    },
    {
      "inputs": [
        {
          "internalType": "uint256",
          "name": "tokenId",
          "type": "uint256"
        }
      ],
      "name": "getSongs",
      "outputs": [
        {
          "components": [
            {
              "internalType": "string",
              "name": "title",
              "type": "string"
            },
            {
              "internalType": "string",
              "name": "ipfsURI",
              "type": "string"
            }
          ],
          "internalType": "struct PlaylistNFT.Song[12]",
          "name": "",
          "type": "tuple[12]"
        }
      ],
      "stateMutability": "view",
      "type": "function"
    },
    {
      "inputs": [
        {
          "internalType": "address",
          "name": "owner",
          "type": "address"
        },
        {
          "internalType": "address",
          "name": "operator",
          "type": "address"
        }
      ],
      "name": "isApprovedForAll",
      "outputs": [
        {
          "internalType": "bool",
          "name": "",
          "type": "bool"
        }
      ],
      "stateMutability": "view",
      "type": "function"
    },
    {
      "inputs": [
        {
          "components": [
            {
              "internalType": "string",
              "name": "title",
              "type": "string"
            },
            {
              "internalType": "string",
              "name": "ipfsURI",
              "type": "string"
            }
          ],
          "internalType": "struct PlaylistNFT.Song[12]",
          "name": "songs",
          "type": "tuple[12]"
        },
        {
          "internalType": "string",
          "name": "metadataURI",
          "type": "string"
        }
      ],
      "name": "mintPlaylistNFT",
      "outputs": [
        {
          "internalType": "uint256",
          "name": "",
          "type": "uint256"
        }
      ],
      "stateMutability": "payable",
      "type": "function"
    },
    {
      "inputs": [],
      "name": "name",
      "outputs": [
        {
          "internalType": "string",
          "name": "",
          "type": "string"
        }
      ],
      "stateMutability": "view",
      "type": "function"
    },
    {
      "inputs": [],
      "name": "owner",
      "outputs": [
        {
          "internalType": "address",
          "name": "",
          "type": "address"
        }
      ],
      "stateMutability": "view",
      "type": "function"
    },
    {
      "inputs": [
        {
          "internalType": "uint256",
          "name": "tokenId",
          "type": "uint256"
        }
      ],
      "name": "ownerOf",
      "outputs": [
        {
          "internalType": "address",
          "name": "",
          "type": "address"
        }
      ],
      "stateMutability": "view",
      "type": "function"
    },
    {
      "inputs": [],
      "name": "renounceOwnership",
      "outputs": [],
      "stateMutability": "nonpayable",
      "type": "function"
    },
    {
      "inputs": [
        {
          "internalType": "address",
          "name": "from",
          "type": "address"
        },
        {
          "internalType": "address",
          "name": "to",
          "type": "address"
        },
        {
          "internalType": "uint256",
          "name": "tokenId",
          "type": "uint256"
        }
      ],
      "name": "safeTransferFrom",
      "outputs": [],
      "stateMutability": "nonpayable",
      "type": "function"
    },
    {
      "inputs": [
        {
          "internalType": "address",
          "name": "from",
          "type": "address"
        },
        {
          "internalType": "address",
          "name": "to",
          "type": "address"
        },
        {
          "internalType": "uint256",
          "name": "tokenId",
          "type": "uint256"
        },
        {
          "internalType": "bytes",
          "name": "data",
          "type": "bytes"
        }
      ],
      "name": "safeTransferFrom",
      "outputs": [],
      "stateMutability": "nonpayable",
      "type": "function"
    },
    {
      "inputs": [
        {
          "internalType": "address",
          "name": "operator",
          "type": "address"
        },
        {
          "internalType": "bool",
          "name": "approved",
          "type": "bool"
        }
      ],
      "name": "setApprovalForAll",
      "outputs": [],
      "stateMutability": "nonpayable",
      "type": "function"
    },
    {
      "inputs": [
        {
          "internalType": "bytes4",
          "name": "interfaceId",
          "type": "bytes4"
        }
      ],
      "name": "supportsInterface",
      "outputs": [
        {
          "internalType": "bool",
          "name": "",
          "type": "bool"
        }
      ],
      "stateMutability": "view",
      "type": "function"
    },
    {
      "inputs": [],
      "name": "symbol",
      "outputs": [
        {
          "internalType": "string",
          "name": "",
          "type": "string"
        }
      ],
      "stateMutability": "view",
      "type": "function"
    },
    {
      "inputs": [],
      "name": "tokenCounter",
      "outputs": [
        {
          "internalType": "uint256",
          "name": "",
          "type": "uint256"
        }
      ],
      "stateMutability": "view",
      "type": "function"
    },
    {
      "inputs": [
        {
          "internalType": "uint256",
          "name": "tokenId",
          "type": "uint256"
        }
      ],
      "name": "tokenURI",
      "outputs": [
        {
          "internalType": "string",
          "name": "",
          "type": "string"
        }
      ],
      "stateMutability": "view",
      "type": "function"
    },
    {
      "inputs": [
        {
          "internalType": "address",
          "name": "from",
          "type": "address"
        },
        {
          "internalType": "address",
          "name": "to",
          "type": "address"
        },
        {
          "internalType": "uint256",
          "name": "tokenId",
          "type": "uint256"
        }
      ],
      "name": "transferFrom",
      "outputs": [],
      "stateMutability": "nonpayable",
      "type": "function"
    },
    {
      "inputs": [
        {
          "internalType": "address",
          "name": "newOwner",
          "type": "address"
        }
      ],
      "name": "transferOwnership",
      "outputs": [],
      "stateMutability": "nonpayable",
      "type": "function"
    },
    {
      "inputs": [],
      "name": "withdraw",
      "outputs": [],
      "stateMutability": "nonpayable",
      "type": "function"
    }
  ],
  "bytecode": "0x60806040523480156200001157600080fd5b506040518060400160405280600b81526020017f506c61796c6973744e46540000000000000000000000000000000000000000008152506040518060400160405280600581526020017f504c4e465400000000000000000000000000000000000000000000000000000081525081600090816200008f91906200041a565b508060019081620000a191906200041a565b505050620000c4620000b8620000d260201b60201c565b620000da60201b60201c565b600160088190555062000501565b600033905090565b6000600760009054906101000a900473ffffffffffffffffffffffffffffffffffffffff16905081600760006101000a81548173ffffffffffffffffffffffffffffffffffffffff021916908373ffffffffffffffffffffffffffffffffffffffff1602179055508173ffffffffffffffffffffffffffffffffffffffff168173ffffffffffffffffffffffffffffffffffffffff167f8be0079c531659141344cd1fd0a4f28419497f9722a3daafe3b4186f6b6457e060405160405180910390a35050565b600081519050919050565b7f4e487b7100000000000000000000000000000000000000000000000000000000600052604160045260246000fd5b7f4e487b7100000000000000000000000000000000000000000000000000000000600052602260045260246000fd5b600060028204905060018216806200022257607f821691505b602082108103620002385762000237620001da565b5b50919050565b60008190508160005260206000209050919050565b60006020601f8301049050919050565b600082821b905092915050565b600060088302620002a27fffffffffffffffffffffffffffffffffffffffffffffffffffffffffffffffff8262000263565b620002ae868362000263565b95508019841693508086168417925050509392505050565b6000819050919050565b6000819050919050565b6000620002fb620002f5620002ef84620002c6565b620002d0565b620002c6565b9050919050565b6000819050919050565b6200031783620002da565b6200032f620003268262000302565b84845462000270565b825550505050565b600090565b6200034662000337565b620003538184846200030c565b505050565b5b818110156200037b576200036f6000826200033c565b60018101905062000359565b5050565b601f821115620003ca5762000394816200023e565b6200039f8462000253565b81016020851015620003af578190505b620003c7620003be8562000253565b83018262000358565b50505b505050565b600082821c905092915050565b6000620003ef60001984600802620003cf565b1980831691505092915050565b60006200040a8383620003dc565b9150826002028217905092915050565b6200042582620001a0565b67ffffffffffffffff811115620004415762000440620001ab565b5b6200044d825462000209565b6200045a8282856200037f565b600060209050601f8311600181146200049257600084156200047d578287015190505b620004898582620003fc565b865550620004f9565b601f198416620004a2866200023e565b60005b82811015620004cc57848901518255600182019150602085019450602081019050620004a5565b86831015620004ec5784890151620004e8601f891682620003dc565b8355505b6001600288020188555050505b505050505050565b613d3380620005116000396000f3fe6080604052600436106101405760003560e01c806370a08231116100b6578063c002d23d1161006f578063c002d23d14610448578063c87b56dd14610473578063d082e381146104b0578063e96527d1146104db578063e985e9c51461050b578063f2fde38b1461054857610140565b806370a082311461034c578063715018a6146103895780638da5cb5b146103a057806395d89b41146103cb578063a22cb465146103f6578063b88d4fde1461041f57610140565b806320c6b3b61161010857806320c6b3b61461023e57806323b872dd1461027b57806327a1ec13146102a45780633ccfd60b146102cf57806342842e0e146102e65780636352211e1461030f57610140565b806301ffc9a71461014557806306fdde0314610182578063081812fc146101ad578063095ea7b3146101ea57806312065fe014610213575b600080fd5b34801561015157600080fd5b5061016c60048036038101906101679190612427565b610571565b604051610179919061246f565b60405180910390f35b34801561018e57600080fd5b506101976105d2565b6040516101a4919061251a565b60405180910390f35b3480156101b957600080fd5b506101d460048036038101906101cf9190612572565b610664565b6040516101e191906125e0565b60405180910390f35b3480156101f657600080fd5b50610211600480360381019061020c9190612627565b6106aa565b005b34801561021f57600080fd5b506102286107c1565b6040516102359190612676565b60405180910390f35b34801561024a57600080fd5b5061026560048036038101906102609190612572565b6107c9565b60405161027291906127d5565b60405180910390f35b34801561028757600080fd5b506102a2600480360381019061029d91906127f7565b61099a565b005b3480156102b057600080fd5b506102b96109fa565b6040516102c69190612866565b60405180910390f35b3480156102db57600080fd5b506102e46109ff565b005b3480156102f257600080fd5b5061030d600480360381019061030891906127f7565b610b06565b005b34801561031b57600080fd5b5061033660048036038101906103319190612572565b610b26565b60405161034391906125e0565b60405180910390f35b34801561035857600080fd5b50610373600480360381019061036e9190612881565b610bac565b6040516103809190612676565b60405180910390f35b34801561039557600080fd5b5061039e610c63565b005b3480156103ac57600080fd5b506103b5610c77565b6040516103c291906125e0565b60405180910390f35b3480156103d757600080fd5b506103e0610ca1565b6040516103ed919061251a565b60405180910390f35b34801561040257600080fd5b5061041d600480360381019061041891906128da565b610d33565b005b34801561042b57600080fd5b5061044660048036038101906104419190612a4f565b610d49565b005b34801561045457600080fd5b5061045d610dab565b60405161046a9190612676565b60405180910390f35b34801561047f57600080fd5b5061049a60048036038101906104959190612572565b610db7565b6040516104a7919061251a565b60405180910390f35b3480156104bc57600080fd5b506104c5610ec9565b6040516104d29190612676565b60405180910390f35b6104f560048036038101906104f09190612b54565b610ecf565b6040516105029190612676565b60405180910390f35b34801561051757600080fd5b50610532600480360381019061052d9190612bd0565b61115c565b60405161053f919061246f565b60405180910390f35b34801561055457600080fd5b5061056f600480360381019061056a9190612881565b6111f0565b005b6000634906490660e01b7bffffffffffffffffffffffffffffffffffffffffffffffffffffffff1916827bffffffffffffffffffffffffffffffffffffffffffffffffffffffff191614806105cb57506105ca82611273565b5b9050919050565b6060600080546105e190612c3f565b80601f016020809104026020016040519081016040528092919081815260200182805461060d90612c3f565b801561065a5780601f1061062f5761010080835404028352916020019161065a565b820191906000526020600020905b81548152906001019060200180831161063d57829003601f168201915b5050505050905090565b600061066f82611355565b6004600083815260200190815260200160002060009054906101000a900473ffffffffffffffffffffffffffffffffffffffff169050919050565b60006106b582610b26565b90508073ffffffffffffffffffffffffffffffffffffffff168373ffffffffffffffffffffffffffffffffffffffff1603610725576040517f08c379a000000000000000000000000000000000000000000000000000000000815260040161071c90612ce2565b60405180910390fd5b8073ffffffffffffffffffffffffffffffffffffffff166107446113a0565b73ffffffffffffffffffffffffffffffffffffffff16148061077357506107728161076d6113a0565b61115c565b5b6107b2576040517f08c379a00000000000000000000000000000000000000000000000000000000081526004016107a990612d74565b60405180910390fd5b6107bc83836113a8565b505050565b600047905090565b6107d1612373565b6107da82611461565b610819576040517f08c379a000000000000000000000000000000000000000000000000000000000815260040161081090612e06565b60405180910390fd5b60096000838152602001908152602001600020600c80602002604051908101604052809291906000905b8282101561098f5783826002020160405180604001604052908160008201805461086c90612c3f565b80601f016020809104026020016040519081016040528092919081815260200182805461089890612c3f565b80156108e55780601f106108ba576101008083540402835291602001916108e5565b820191906000526020600020905b8154815290600101906020018083116108c857829003601f168201915b505050505081526020016001820180546108fe90612c3f565b80601f016020809104026020016040519081016040528092919081815260200182805461092a90612c3f565b80156109775780601f1061094c57610100808354040283529160200191610977565b820191906000526020600020905b81548152906001019060200180831161095a57829003601f168201915b50505050508152505081526020019060010190610843565b505050509050919050565b6109ab6109a56113a0565b826114a2565b6109ea576040517f08c379a00000000000000000000000000000000000000000000000000000000081526004016109e190612e98565b60405180910390fd5b6109f5838383611537565b505050565b600c81565b610a07611830565b600047905060008111610a4f576040517f08c379a0000000000000000000000000000000000000000000000000000000008152600401610a4690612f04565b60405180910390fd5b6000610a59610c77565b73ffffffffffffffffffffffffffffffffffffffff1682604051610a7c90612f55565b60006040518083038185875af1925050503d8060008114610ab9576040519150601f19603f3d011682016040523d82523d6000602084013e610abe565b606091505b5050905080610b02576040517f08c379a0000000000000000000000000000000000000000000000000000000008152600401610af990612fb6565b60405180910390fd5b5050565b610b2183838360405180602001604052806000815250610d49565b505050565b600080610b32836118ae565b9050600073ffffffffffffffffffffffffffffffffffffffff168173ffffffffffffffffffffffffffffffffffffffff1603610ba3576040517f08c379a0000000000000000000000000000000000000000000000000000000008152600401610b9a90613022565b60405180910390fd5b80915050919050565b60008073ffffffffffffffffffffffffffffffffffffffff168273ffffffffffffffffffffffffffffffffffffffff1603610c1c576040517f08c379a0000000000000000000000000000000000000000000000000000000008152600401610c13906130b4565b60405180910390fd5b600360008373ffffffffffffffffffffffffffffffffffffffff1673ffffffffffffffffffffffffffffffffffffffff168152602001908152602001600020549050919050565b610c6b611830565b610c7560006118eb565b565b6000600760009054906101000a900473ffffffffffffffffffffffffffffffffffffffff16905090565b606060018054610cb090612c3f565b80601f0160208091040260200160405190810160405280929190818152602001828054610cdc90612c3f565b8015610d295780601f10610cfe57610100808354040283529160200191610d29565b820191906000526020600020905b815481529060010190602001808311610d0c57829003601f168201915b5050505050905090565b610d45610d3e6113a0565b83836119b1565b5050565b610d5a610d546113a0565b836114a2565b610d99576040517f08c379a0000000000000000000000000000000000000000000000000000000008152600401610d9090612e98565b60405180910390fd5b610da584848484611b1d565b50505050565b6701aa535d3d0c000081565b6060610dc282611355565b6000600660008481526020019081526020016000208054610de290612c3f565b80601f0160208091040260200160405190810160405280929190818152602001828054610e0e90612c3f565b8015610e5b5780601f10610e3057610100808354040283529160200191610e5b565b820191906000526020600020905b815481529060010190602001808311610e3e57829003601f168201915b505050505090506000610e6c611b79565b90506000815103610e81578192505050610ec4565b600082511115610eb6578082604051602001610e9e929190613110565b60405160208183030381529060405292505050610ec4565b610ebf84611b90565b925050505b919050565b60085481565b60006701aa535d3d0c00003414610f1b576040517f08c379a0000000000000000000000000000000000000000000000000000000008152600401610f1290613180565b60405180910390fd5b60006008549050600160086000828254610f3591906131cf565b9250508190555060005b600c60ff168160ff1610156110b4576000868260ff16600c8110610f6657610f65613203565b5b602002810190610f769190613241565b8060000190610f859190613269565b905011610fc7576040517f08c379a0000000000000000000000000000000000000000000000000000000008152600401610fbe90613318565b60405180910390fd5b6000868260ff16600c8110610fdf57610fde613203565b5b602002810190610fef9190613241565b8060200190610ffe9190613269565b905011611040576040517f08c379a000000000000000000000000000000000000000000000000000000000815260040161103790613384565b60405180910390fd5b858160ff16600c811061105657611055613203565b5b6020028101906110669190613241565b600960008481526020019081526020016000208260ff16600c811061108e5761108d613203565b5b60020201818161109e9190613681565b90505080806110ac9061368f565b915050610f3f565b506110bf3382611bf8565b61110d8185858080601f016020809104026020016040519081016040528093929190818152602001838380828437600081840152601f19601f82011690508083019250505050505050611c16565b803373ffffffffffffffffffffffffffffffffffffffff167fc31da7a61c2935a237c4fd63afd88cde5080aa560e35ce39f1906fd8f784103060405160405180910390a3809150509392505050565b6000600560008473ffffffffffffffffffffffffffffffffffffffff1673ffffffffffffffffffffffffffffffffffffffff16815260200190815260200160002060008373ffffffffffffffffffffffffffffffffffffffff1673ffffffffffffffffffffffffffffffffffffffff16815260200190815260200160002060009054906101000a900460ff16905092915050565b6111f8611830565b600073ffffffffffffffffffffffffffffffffffffffff168173ffffffffffffffffffffffffffffffffffffffff1603611267576040517f08c379a000000000000000000000000000000000000000000000000000000000815260040161125e9061372a565b60405180910390fd5b611270816118eb565b50565b60007f80ac58cd000000000000000000000000000000000000000000000000000000007bffffffffffffffffffffffffffffffffffffffffffffffffffffffff1916827bffffffffffffffffffffffffffffffffffffffffffffffffffffffff1916148061133e57507f5b5e139f000000000000000000000000000000000000000000000000000000007bffffffffffffffffffffffffffffffffffffffffffffffffffffffff1916827bffffffffffffffffffffffffffffffffffffffffffffffffffffffff1916145b8061134e575061134d82611cba565b5b9050919050565b61135e81611461565b61139d576040517f08c379a000000000000000000000000000000000000000000000000000000000815260040161139490613022565b60405180910390fd5b50565b600033905090565b816004600083815260200190815260200160002060006101000a81548173ffffffffffffffffffffffffffffffffffffffff021916908373ffffffffffffffffffffffffffffffffffffffff160217905550808273ffffffffffffffffffffffffffffffffffffffff1661141b83610b26565b73ffffffffffffffffffffffffffffffffffffffff167f8c5be1e5ebec7d5bd14f71427d1e84f3dd0314c0f7b2291e5b200ac8c7c3b92560405160405180910390a45050565b60008073ffffffffffffffffffffffffffffffffffffffff16611483836118ae565b73ffffffffffffffffffffffffffffffffffffffff1614159050919050565b6000806114ae83610b26565b90508073ffffffffffffffffffffffffffffffffffffffff168473ffffffffffffffffffffffffffffffffffffffff1614806114f057506114ef818561115c565b5b8061152e57508373ffffffffffffffffffffffffffffffffffffffff1661151684610664565b73ffffffffffffffffffffffffffffffffffffffff16145b91505092915050565b8273ffffffffffffffffffffffffffffffffffffffff1661155782610b26565b73ffffffffffffffffffffffffffffffffffffffff16146115ad576040517f08c379a00000000000000000000000000000000000000000000000000000000081526004016115a4906137bc565b60405180910390fd5b600073ffffffffffffffffffffffffffffffffffffffff168273ffffffffffffffffffffffffffffffffffffffff160361161c576040517f08c379a00000000000000000000000000000000000000000000000000000000081526004016116139061384e565b60405180910390fd5b6116298383836001611d24565b8273ffffffffffffffffffffffffffffffffffffffff1661164982610b26565b73ffffffffffffffffffffffffffffffffffffffff161461169f576040517f08c379a0000000000000000000000000000000000000000000000000000000008152600401611696906137bc565b60405180910390fd5b6004600082815260200190815260200160002060006101000a81549073ffffffffffffffffffffffffffffffffffffffff02191690556001600360008573ffffffffffffffffffffffffffffffffffffffff1673ffffffffffffffffffffffffffffffffffffffff168152602001908152602001600020600082825403925050819055506001600360008473ffffffffffffffffffffffffffffffffffffffff1673ffffffffffffffffffffffffffffffffffffffff16815260200190815260200160002060008282540192505081905550816002600083815260200190815260200160002060006101000a81548173ffffffffffffffffffffffffffffffffffffffff021916908373ffffffffffffffffffffffffffffffffffffffff160217905550808273ffffffffffffffffffffffffffffffffffffffff168473ffffffffffffffffffffffffffffffffffffffff167fddf252ad1be2c89b69c2b068fc378daa952ba7f163c4a11628f55a4df523b3ef60405160405180910390a461182b8383836001611d2a565b505050565b6118386113a0565b73ffffffffffffffffffffffffffffffffffffffff16611856610c77565b73ffffffffffffffffffffffffffffffffffffffff16146118ac576040517f08c379a00000000000000000000000000000000000000000000000000000000081526004016118a3906138ba565b60405180910390fd5b565b60006002600083815260200190815260200160002060009054906101000a900473ffffffffffffffffffffffffffffffffffffffff169050919050565b6000600760009054906101000a900473ffffffffffffffffffffffffffffffffffffffff16905081600760006101000a81548173ffffffffffffffffffffffffffffffffffffffff021916908373ffffffffffffffffffffffffffffffffffffffff1602179055508173ffffffffffffffffffffffffffffffffffffffff168173ffffffffffffffffffffffffffffffffffffffff167f8be0079c531659141344cd1fd0a4f28419497f9722a3daafe3b4186f6b6457e060405160405180910390a35050565b8173ffffffffffffffffffffffffffffffffffffffff168373ffffffffffffffffffffffffffffffffffffffff1603611a1f576040517f08c379a0000000000000000000000000000000000000000000000000000000008152600401611a1690613926565b60405180910390fd5b80600560008573ffffffffffffffffffffffffffffffffffffffff1673ffffffffffffffffffffffffffffffffffffffff16815260200190815260200160002060008473ffffffffffffffffffffffffffffffffffffffff1673ffffffffffffffffffffffffffffffffffffffff16815260200190815260200160002060006101000a81548160ff0219169083151502179055508173ffffffffffffffffffffffffffffffffffffffff168373ffffffffffffffffffffffffffffffffffffffff167f17307eab39ab6107e8899845ad3d59bd9653f200f220920489ca2b5937696c3183604051611b10919061246f565b60405180910390a3505050565b611b28848484611537565b611b3484848484611d30565b611b73576040517f08c379a0000000000000000000000000000000000000000000000000000000008152600401611b6a906139b8565b60405180910390fd5b50505050565b606060405180602001604052806000815250905090565b6060611b9b82611355565b6000611ba5611b79565b90506000815111611bc55760405180602001604052806000815250611bf0565b80611bcf84611eb7565b604051602001611be0929190613110565b6040516020818303038152906040525b915050919050565b611c12828260405180602001604052806000815250611f85565b5050565b611c1f82611461565b611c5e576040517f08c379a0000000000000000000000000000000000000000000000000000000008152600401611c5590613a4a565b60405180910390fd5b80600660008481526020019081526020016000209081611c7e9190613a6a565b507ff8e1a15aba9398e019f0b49df1a4fde98ee17ae345cb5f6b5e2c27f5033e8ce782604051611cae9190612676565b60405180910390a15050565b60007f01ffc9a7000000000000000000000000000000000000000000000000000000007bffffffffffffffffffffffffffffffffffffffffffffffffffffffff1916827bffffffffffffffffffffffffffffffffffffffffffffffffffffffff1916149050919050565b50505050565b50505050565b6000611d518473ffffffffffffffffffffffffffffffffffffffff16611fe0565b15611eaa578373ffffffffffffffffffffffffffffffffffffffff1663150b7a02611d7a6113a0565b8786866040518563ffffffff1660e01b8152600401611d9c9493929190613b91565b6020604051808303816000875af1925050508015611dd857506040513d601f19601f82011682018060405250810190611dd59190613bf2565b60015b611e5a573d8060008114611e08576040519150601f19603f3d011682016040523d82523d6000602084013e611e0d565b606091505b506000815103611e52576040517f08c379a0000000000000000000000000000000000000000000000000000000008152600401611e49906139b8565b60405180910390fd5b805181602001fd5b63150b7a0260e01b7bffffffffffffffffffffffffffffffffffffffffffffffffffffffff1916817bffffffffffffffffffffffffffffffffffffffffffffffffffffffff191614915050611eaf565b600190505b949350505050565b606060006001611ec684612003565b01905060008167ffffffffffffffff811115611ee557611ee4612924565b5b6040519080825280601f01601f191660200182016040528015611f175781602001600182028036833780820191505090505b509050600082602001820190505b600115611f7a578080600190039150507f3031323334353637383961626364656600000000000000000000000000000000600a86061a8153600a8581611f6e57611f6d613c1f565b5b04945060008503611f25575b819350505050919050565b611f8f8383612156565b611f9c6000848484611d30565b611fdb576040517f08c379a0000000000000000000000000000000000000000000000000000000008152600401611fd2906139b8565b60405180910390fd5b505050565b6000808273ffffffffffffffffffffffffffffffffffffffff163b119050919050565b600080600090507a184f03e93ff9f4daa797ed6e38ed64bf6a1f0100000000000000008310612061577a184f03e93ff9f4daa797ed6e38ed64bf6a1f010000000000000000838161205757612056613c1f565b5b0492506040810190505b6d04ee2d6d415b85acef8100000000831061209e576d04ee2d6d415b85acef8100000000838161209457612093613c1f565b5b0492506020810190505b662386f26fc1000083106120cd57662386f26fc1000083816120c3576120c2613c1f565b5b0492506010810190505b6305f5e10083106120f6576305f5e10083816120ec576120eb613c1f565b5b0492506008810190505b612710831061211b57612710838161211157612110613c1f565b5b0492506004810190505b6064831061213e576064838161213457612133613c1f565b5b0492506002810190505b600a831061214d576001810190505b80915050919050565b600073ffffffffffffffffffffffffffffffffffffffff168273ffffffffffffffffffffffffffffffffffffffff16036121c5576040517f08c379a00000000000000000000000000000000000000000000000000000000081526004016121bc90613c9a565b60405180910390fd5b6121ce81611461565b1561220e576040517f08c379a000000000000000000000000000000000000000000000000000000000815260040161220590613d06565b60405180910390fd5b61221c600083836001611d24565b61222581611461565b15612265576040517f08c379a000000000000000000000000000000000000000000000000000000000815260040161225c90613d06565b60405180910390fd5b6001600360008473ffffffffffffffffffffffffffffffffffffffff1673ffffffffffffffffffffffffffffffffffffffff16815260200190815260200160002060008282540192505081905550816002600083815260200190815260200160002060006101000a81548173ffffffffffffffffffffffffffffffffffffffff021916908373ffffffffffffffffffffffffffffffffffffffff160217905550808273ffffffffffffffffffffffffffffffffffffffff16600073ffffffffffffffffffffffffffffffffffffffff167fddf252ad1be2c89b69c2b068fc378daa952ba7f163c4a11628f55a4df523b3ef60405160405180910390a461236f600083836001611d2a565b5050565b604051806101800160405280600c905b61238b6123a1565b8152602001906001900390816123835790505090565b604051806040016040528060608152602001606081525090565b6000604051905090565b600080fd5b600080fd5b60007fffffffff0000000000000000000000000000000000000000000000000000000082169050919050565b612404816123cf565b811461240f57600080fd5b50565b600081359050612421816123fb565b92915050565b60006020828403121561243d5761243c6123c5565b5b600061244b84828501612412565b91505092915050565b60008115159050919050565b61246981612454565b82525050565b60006020820190506124846000830184612460565b92915050565b600081519050919050565b600082825260208201905092915050565b60005b838110156124c45780820151818401526020810190506124a9565b60008484015250505050565b6000601f19601f8301169050919050565b60006124ec8261248a565b6124f68185612495565b93506125068185602086016124a6565b61250f816124d0565b840191505092915050565b6000602082019050818103600083015261253481846124e1565b905092915050565b6000819050919050565b61254f8161253c565b811461255a57600080fd5b50565b60008135905061256c81612546565b92915050565b600060208284031215612588576125876123c5565b5b60006125968482850161255d565b91505092915050565b600073ffffffffffffffffffffffffffffffffffffffff82169050919050565b60006125ca8261259f565b9050919050565b6125da816125bf565b82525050565b60006020820190506125f560008301846125d1565b92915050565b612604816125bf565b811461260f57600080fd5b50565b600081359050612621816125fb565b92915050565b6000806040838503121561263e5761263d6123c5565b5b600061264c85828601612612565b925050602061265d8582860161255d565b9150509250929050565b6126708161253c565b82525050565b600060208201905061268b6000830184612667565b92915050565b6000600c9050919050565b600081905092915050565b6000819050919050565b600082825260208201905092915050565b60006126cd8261248a565b6126d781856126b1565b93506126e78185602086016124a6565b6126f0816124d0565b840191505092915050565b6000604083016000830151848203600086015261271882826126c2565b9150506020830151848203602086015261273282826126c2565b9150508091505092915050565b600061274b83836126fb565b905092915050565b6000602082019050919050565b600061276b82612691565b612775818561269c565b935083602082028501612787856126a7565b8060005b858110156127c357848403895281516127a4858261273f565b94506127af83612753565b925060208a0199505060018101905061278b565b50829750879550505050505092915050565b600060208201905081810360008301526127ef8184612760565b905092915050565b6000806000606084860312156128105761280f6123c5565b5b600061281e86828701612612565b935050602061282f86828701612612565b92505060406128408682870161255d565b9150509250925092565b600060ff82169050919050565b6128608161284a565b82525050565b600060208201905061287b6000830184612857565b92915050565b600060208284031215612897576128966123c5565b5b60006128a584828501612612565b91505092915050565b6128b781612454565b81146128c257600080fd5b50565b6000813590506128d4816128ae565b92915050565b600080604083850312156128f1576128f06123c5565b5b60006128ff85828601612612565b9250506020612910858286016128c5565b9150509250929050565b600080fd5b600080fd5b7f4e487b7100000000000000000000000000000000000000000000000000000000600052604160045260246000fd5b61295c826124d0565b810181811067ffffffffffffffff8211171561297b5761297a612924565b5b80604052505050565b600061298e6123bb565b905061299a8282612953565b919050565b600067ffffffffffffffff8211156129ba576129b9612924565b5b6129c3826124d0565b9050602081019050919050565b82818337600083830152505050565b60006129f26129ed8461299f565b612984565b905082815260208101848484011115612a0e57612a0d61291f565b5b612a198482856129d0565b509392505050565b600082601f830112612a3657612a3561291a565b5b8135612a468482602086016129df565b91505092915050565b60008060008060808587031215612a6957612a686123c5565b5b6000612a7787828801612612565b9450506020612a8887828801612612565b9350506040612a998782880161255d565b925050606085013567ffffffffffffffff811115612aba57612ab96123ca565b5b612ac687828801612a21565b91505092959194509250565b600080fd5b6000819050826020600c0282011115612af357612af2612ad2565b5b92915050565b600080fd5b60008083601f840112612b1457612b1361291a565b5b8235905067ffffffffffffffff811115612b3157612b30612af9565b5b602083019150836001820283011115612b4d57612b4c612ad2565b5b9250929050565b600080600060408486031215612b6d57612b6c6123c5565b5b600084013567ffffffffffffffff811115612b8b57612b8a6123ca565b5b612b9786828701612ad7565b935050602084013567ffffffffffffffff811115612bb857612bb76123ca565b5b612bc486828701612afe565b92509250509250925092565b60008060408385031215612be757612be66123c5565b5b6000612bf585828601612612565b9250506020612c0685828601612612565b9150509250929050565b7f4e487b7100000000000000000000000000000000000000000000000000000000600052602260045260246000fd5b60006002820490506001821680612c5757607f821691505b602082108103612c6a57612c69612c10565b5b50919050565b7f4552433732313a20617070726f76616c20746f2063757272656e74206f776e6560008201527f7200000000000000000000000000000000000000000000000000000000000000602082015250565b6000612ccc602183612495565b9150612cd782612c70565b604082019050919050565b60006020820190508181036000830152612cfb81612cbf565b9050919050565b7f4552433732313a20617070726f76652063616c6c6572206973206e6f7420746f60008201527f6b656e206f776e6572206f7220617070726f76656420666f7220616c6c000000602082015250565b6000612d5e603d83612495565b9150612d6982612d02565b604082019050919050565b60006020820190508181036000830152612d8d81612d51565b9050919050565b7f506c61796c6973744e46543a20717565727920666f72206e6f6e65786973746560008201527f6e7420746f6b656e000000000000000000000000000000000000000000000000602082015250565b6000612df0602883612495565b9150612dfb82612d94565b604082019050919050565b60006020820190508181036000830152612e1f81612de3565b9050919050565b7f4552433732313a2063616c6c6572206973206e6f7420746f6b656e206f776e6560008201527f72206f7220617070726f76656400000000000000000000000000000000000000602082015250565b6000612e82602d83612495565b9150612e8d82612e26565b604082019050919050565b60006020820190508181036000830152612eb181612e75565b9050919050565b7f4e6f2066756e647320746f207769746864726177000000000000000000000000600082015250565b6000612eee601483612495565b9150612ef982612eb8565b602082019050919050565b60006020820190508181036000830152612f1d81612ee1565b9050919050565b600081905092915050565b50565b6000612f3f600083612f24565b9150612f4a82612f2f565b600082019050919050565b6000612f6082612f32565b9150819050919050565b7f5769746864726177616c206661696c6564000000000000000000000000000000600082015250565b6000612fa0601183612495565b9150612fab82612f6a565b602082019050919050565b60006020820190508181036000830152612fcf81612f93565b9050919050565b7f4552433732313a20696e76616c696420746f6b656e2049440000000000000000600082015250565b600061300c601883612495565b915061301782612fd6565b602082019050919050565b6000602082019050818103600083015261303b81612fff565b9050919050565b7f4552433732313a2061646472657373207a65726f206973206e6f74206120766160008201527f6c6964206f776e65720000000000000000000000000000000000000000000000602082015250565b600061309e602983612495565b91506130a982613042565b604082019050919050565b600060208201905081810360008301526130cd81613091565b9050919050565b600081905092915050565b60006130ea8261248a565b6130f481856130d4565b93506131048185602086016124a6565b80840191505092915050565b600061311c82856130df565b915061312882846130df565b91508190509392505050565b7f496e636f7272656374207061796d656e7420616d6f756e740000000000000000600082015250565b600061316a601883612495565b915061317582613134565b602082019050919050565b600060208201905081810360008301526131998161315d565b9050919050565b7f4e487b7100000000000000000000000000000000000000000000000000000000600052601160045260246000fd5b60006131da8261253c565b91506131e58361253c565b92508282019050808211156131fd576131fc6131a0565b5b92915050565b7f4e487b7100000000000000000000000000000000000000000000000000000000600052603260045260246000fd5b600080fd5b600080fd5b600080fd5b60008235600160400383360303811261325d5761325c613232565b5b80830191505092915050565b6000808335600160200384360303811261328657613285613232565b5b80840192508235915067ffffffffffffffff8211156132a8576132a7613237565b5b6020830192506001820236038313156132c4576132c361323c565b5b509250929050565b7f536f6e67207469746c6520726571756972656400000000000000000000000000600082015250565b6000613302601383612495565b915061330d826132cc565b602082019050919050565b60006020820190508181036000830152613331816132f5565b9050919050565b7f536f6e6720495046532055524920726571756972656400000000000000000000600082015250565b600061336e601683612495565b915061337982613338565b602082019050919050565b6000602082019050818103600083015261339d81613361565b9050919050565b600082905092915050565b60008190508160005260206000209050919050565b60006020601f8301049050919050565b600082821b905092915050565b6000600883026134117fffffffffffffffffffffffffffffffffffffffffffffffffffffffffffffffff826133d4565b61341b86836133d4565b95508019841693508086168417925050509392505050565b6000819050919050565b600061345861345361344e8461253c565b613433565b61253c565b9050919050565b6000819050919050565b6134728361343d565b61348661347e8261345f565b8484546133e1565b825550505050565b600090565b61349b61348e565b6134a6818484613469565b505050565b5b818110156134ca576134bf600082613493565b6001810190506134ac565b5050565b601f82111561350f576134e0816133af565b6134e9846133c4565b810160208510156134f8578190505b61350c613504856133c4565b8301826134ab565b50505b505050565b600082821c905092915050565b600061353260001984600802613514565b1980831691505092915050565b600061354b8383613521565b9150826002028217905092915050565b61356583836133a4565b67ffffffffffffffff81111561357e5761357d612924565b5b6135888254612c3f565b6135938282856134ce565b6000601f8311600181146135c257600084156135b0578287013590505b6135ba858261353f565b865550613622565b601f1984166135d0866133af565b60005b828110156135f8578489013582556001820191506020850194506020810190506135d3565b868310156136155784890135613611601f891682613521565b8355505b6001600288020188555050505b50505050505050565b61363683838361355b565b505050565b600081016000830161364d8185613269565b61365881838661362b565b50505050600181016020830161366e8185613269565b61367981838661362b565b505050505050565b61368b828261363b565b5050565b600061369a8261284a565b915060ff82036136ad576136ac6131a0565b5b600182019050919050565b7f4f776e61626c653a206e6577206f776e657220697320746865207a65726f206160008201527f6464726573730000000000000000000000000000000000000000000000000000602082015250565b6000613714602683612495565b915061371f826136b8565b604082019050919050565b6000602082019050818103600083015261374381613707565b9050919050565b7f4552433732313a207472616e736665722066726f6d20696e636f72726563742060008201527f6f776e6572000000000000000000000000000000000000000000000000000000602082015250565b60006137a6602583612495565b91506137b18261374a565b604082019050919050565b600060208201905081810360008301526137d581613799565b9050919050565b7f4552433732313a207472616e7366657220746f20746865207a65726f2061646460008201527f7265737300000000000000000000000000000000000000000000000000000000602082015250565b6000613838602483612495565b9150613843826137dc565b604082019050919050565b600060208201905081810360008301526138678161382b565b9050919050565b7f4f776e61626c653a2063616c6c6572206973206e6f7420746865206f776e6572600082015250565b60006138a4602083612495565b91506138af8261386e565b602082019050919050565b600060208201905081810360008301526138d381613897565b9050919050565b7f4552433732313a20617070726f766520746f2063616c6c657200000000000000600082015250565b6000613910601983612495565b915061391b826138da565b602082019050919050565b6000602082019050818103600083015261393f81613903565b9050919050565b7f4552433732313a207472616e7366657220746f206e6f6e20455243373231526560008201527f63656976657220696d706c656d656e7465720000000000000000000000000000602082015250565b60006139a2603283612495565b91506139ad82613946565b604082019050919050565b600060208201905081810360008301526139d181613995565b9050919050565b7f45524337323155524953746f726167653a2055524920736574206f66206e6f6e60008201527f6578697374656e7420746f6b656e000000000000000000000000000000000000602082015250565b6000613a34602e83612495565b9150613a3f826139d8565b604082019050919050565b60006020820190508181036000830152613a6381613a27565b9050919050565b613a738261248a565b67ffffffffffffffff811115613a8c57613a8b612924565b5b613a968254612c3f565b613aa18282856134ce565b600060209050601f831160018114613ad45760008415613ac2578287015190505b613acc858261353f565b865550613b34565b601f198416613ae2866133af565b60005b82811015613b0a57848901518255600182019150602085019450602081019050613ae5565b86831015613b275784890151613b23601f891682613521565b8355505b6001600288020188555050505b505050505050565b600081519050919050565b600082825260208201905092915050565b6000613b6382613b3c565b613b6d8185613b47565b9350613b7d8185602086016124a6565b613b86816124d0565b840191505092915050565b6000608082019050613ba660008301876125d1565b613bb360208301866125d1565b613bc06040830185612667565b8181036060830152613bd28184613b58565b905095945050505050565b600081519050613bec816123fb565b92915050565b600060208284031215613c0857613c076123c5565b5b6000613c1684828501613bdd565b91505092915050565b7f4e487b7100000000000000000000000000000000000000000000000000000000600052601260045260246000fd5b7f4552433732313a206d696e7420746f20746865207a65726f2061646472657373600082015250565b6000613c84602083612495565b9150613c8f82613c4e565b602082019050919050565b60006020820190508181036000830152613cb381613c77565b9050919050565b7f4552433732313a20746f6b656e20616c7265616479206d696e74656400000000600082015250565b6000613cf0601c83612495565b9150613cfb82613cba565b602082019050919050565b60006020820190508181036000830152613d1f81613ce3565b905091905056fea164736f6c6343000811000a",
  "linkReferences": {},
  "deployedLinkReferences": {}
}